:020000040800F2
:1000000000500020651C000831030008330300087D
:1000100000000000000000000000000000000000E0
:10002000000000000000000000000000B91A0008F5
:100030000000000000000000611B0008A51B000874
:10004000B51C0008B51C0008B51C0008B51C00084C
:10005000B51C0008B51C0008B51C0008B51C00083C
:1000600000000000B51C0008B51C0008B51C000805
:10007000B51C0008B51C0008B51C000835030008B5
:10008000B51C0008B51C0008B51C000800000000E5
:10009000B51C0008B51C0008B51C0008B51C0008FC
:1000A000B51C0008B51C0008B51C0008B51C0008EC
:1000B000B51C0008B51C000800000000000000008E
:1000C00010B5064C2378002B07D1054B002B02D02E
:1000D000044800E000BF0123237010BD0C00002085
:1000E00000000000101D0008044B10B5002B03D0C9
:1000F0000349044800E000BF10BDC04600000000F6
:1001000010000020101D0008002243088B4274D309
:1001100003098B425FD3030A8B4244D3030B8B4208
:1001200028D3030C8B420DD3FF22090212BA030C11
:100130008B4202D31212090265D0030B8B4219D3F2
:1001400000E0090AC30B8B4201D3CB03C01A524112
:10015000830B8B4201D38B03C01A5241430B8B425A
:1001600001D34B03C01A5241030B8B4201D30B0343
:10017000C01A5241C30A8B4201D3CB02C01A52416A
:10018000830A8B4201D38B02C01A5241430A8B422D
:1001900001D34B02C01A5241030A8B4201D30B0216
:1001A000C01A5241CDD2C3098B4201D3CB01C01A30
:1001B000524183098B4201D38B01C01A524143093A
:1001C0008B4201D34B01C01A524103098B4201D328
:1001D0000B01C01A5241C3088B4201D3CB00C01A95
:1001E000524183088B4201D38B00C01A524143080D
:1001F0008B4201D34B00C01A5241411A00D2014632
:10020000524110467047FFE701B5002000F006F8A4
:1002100002BDC0460029F7D076E770477047C04658
:1002200000B593B03422002105A801F069FD142225
:100230000021684601F064FD13490B68134A1A4017
:1002400080231B0113430B600123059380235B0272
:10025000069302220E920F93C0231B031093802358
:10026000DB03119305A800F02FF90F2300930C3B3B
:10027000019300230293039304930121684600F045
:10028000ADFB13B000BDC04600700040FFE7FFFFAC
:1002900010B500F09BF8FFF7C3FF01F095FC00F0EC
:1002A0002FF801F077FAFEE710B502688023DB052E
:1002B0009A4200D010BD00F09DF8FBE710B5012177
:1002C000074800F069FD0121054800F065FD0421A3
:1002D000044800F061FD9620400001F096FAF2E734
:1002E00000040050000C0050034B0360034B0B60F4
:1002F000802313607047C046280200202800002099
:1003000030B589B001A8084903000A0032CA32C3D7
:1003100032CA32C312681A60002101F040FA034B5E
:10032000186009B030BDC046281D0008BC0F002071
:100330007047FEE710B5024800F0DAFD10BDC04678
:10034000C00F0020054B5A6B01210A435A63996B79
:10035000802252050A439A637047C046001002404B
:1003600000B587B0010000220F2000F01DFD0F2016
:1003700000F04CFD114A936B01210B4393636946D6
:1003800001A800F015FC00F003FC0D49FFF7BCFECE
:10039000431E0C488022D20502600B4AC2604360B3
:1003A00000230361836000F074FD002802D0012067
:1003B00007B000BD034800F086FDF9E700100240D9
:1003C00040420F00C00F0020E703000010B5084AAC
:1003D000136840210B4313600020FFF7C1FF041E88
:1003E00002D00124200010BDFFF7ACFFFAE7C046A1
:1003F00000200240034A1168034B1B785B1813600E
:100400007047C046FC0F002000000020014B186818
:100410007047C046FC0F002010B5264BD9680C234E
:100420000B40082B42D00C2B11D0042B09D0214BB0
:100430005A68520B07231340013380200002984072
:1004400010BD1C4B1B68DB0632D51B48F8E78A0C35
:100450000F231340194AD05C890D0322114001314A
:10046000144BDB68DB0309D54201121A93019B1A76
:10047000DB001B185802FFF747FEE1E70D4B1B6836
:10048000DB0609D54201121A93019B1ADB001B18E7
:100490001802FFF739FED3E74201121A93019B1AA3
:1004A000DB001B189802FFF72FFEC9E70448C7E7D7
:1004B0000448C5E70010024000093D00641D000823
:1004C00000127A000024F400F0B583B0041E00D1BD
:1004D00061E2C44BDA680C251540DE6880235B02BC
:1004E0001E400368DB0736D5082D2CD00C2D28D0F4
:1004F000636880225202934255D0A022D2029342D6
:1005000058D0B84B1A68B8490A401A601A68802156
:1005100049020A400192019A1A68B4490A401A60D5
:100520006368002B52D0FFF771FF0700AD4B1B68CB
:100530009B0310D4FFF76AFFC01B6428F6D9032081
:100540002AE2002ED4D0A74B1B689B0303D5636817
:10055000002B00D122E223689B076CD5E3689A0642
:1005600005D5A048026820210A4302608B43042D70
:100570003CD00C2D38D0002B00D1AEE099490A6850
:100580000920824313430B60FFF740FF0600954BA1
:100590001B685B0700D597E0FFF738FF801B022838
:1005A000F5D90320F8E18F4A116880235B020B43E1
:1005B0001360B5E78B4B19688022D2020A431A6098
:1005C0001968802252020A431A60A9E7FFF71EFF4A
:1005D0000700844B1B689B03BDD5FFF717FFC01BAB
:1005E0006428F6D90320D7E1002EC4D17D4A1268D1
:1005F000520702D5002B00D1D2E17A4E72687C49B5
:100600000A40216909020A437260326809218A435B
:1006100013433360FFF700FFF26812090F23134002
:10062000744AD35CD840744B18600020FFF798FEE2
:10063000002800D0B0E12368DB062CD5002D5FD167
:10064000684B1B689B0503D5A369002B00D1A9E16A
:10065000644A536869490B40216A0B4353605368ED
:100660001B021B0AE16909060B435360236A590BFD
:10067000013180231B028B40D16809090F220A40F7
:100680005C498A5CD3405C4A13600020FFF768FE37
:10069000002800D080E123681B077DD56369002B0B
:1006A00067D0504A136D01210B431365FFF7AEFE6F
:1006B00006004C4B1B6D9B076ED4FFF7A7FE801BFB
:1006C0000228F6D9032067E146494B68484A13409F
:1006D0002269120213434B60ADE7424A13680121BD
:1006E0008B431360FFF792FE06003E4B1B685B07CF
:1006F000A1D5FFF78BFE801B0228F6D903204BE122
:10070000A369002B22D0374A116880235B000B437A
:100710001360FFF77BFE0600324B1B689B0506D477
:10072000FFF774FE801B0228F6D9032034E12D4A1E
:10073000536832490B40216A0B43536053681B02D4
:100740001B0AE16909060B435360A4E7254A1368B5
:100750002B490B401360FFF759FE0600214B1B6825
:100760009B0598D5FFF752FE801B0228F6D903207F
:1007700012E11C4A136D01218B431365FFF746FEFE
:100780000600184B1B6D9B0706D5FFF73FFE801B2D
:100790000228F6D90320FFE023685B0700D48CE031
:1007A000104B9B6BDB001BD40E4A916B80235B05C7
:1007B0000B4393630126134B1B68DB0526D5A36807
:1007C00080225200934235D0002B4BD1054B1A6D3D
:1007D0000B490A401A651A6D0B490A401A652FE049
:1007E0000026E8E700100240FFFFFEFFFFFFFBFFCF
:1007F000FFE0FFFF4C1D000804000020FF1FFFFF6B
:10080000FFFEFFFF00700040FFFBFFFF6B4A116817
:1008100080235B000B431360FFF7F8FD0700674B75
:100820001B68DB05CBD4FFF7F1FDC01B6428F6D9AC
:100830000320B1E0624A116D80235B000B43136516
:10084000A368002B28D0FFF7E1FD07005C4B1B6D70
:100850009B0530D4FFF7DAFDC01B5A4B9842F5D9FF
:10086000032099E0A022D200934209D0544B1A6D84
:1008700055490A401A651A6D54490A401A65DFE75E
:100880004F4B196D013AFF3A0A431A65196D8022E0
:1008900052000A431A65D3E7FFF7B8FD0700484B3B
:1008A0001B6D9B0507D5FFF7B1FDC01B454B98425B
:1008B000F5D9032070E0012E1AD0636A002B00D115
:1008C00072E00C2D4FD0022B18D03D4A13684049DE
:1008D0000B401360FFF79AFD0400394B1B689B0126
:1008E0003FD5FFF793FD001B0228F6D9032053E004
:1008F000334A936B37490B409363DEE7304A136802
:1009000033490B401360FFF781FD05002C4B1B683A
:100910009B0106D5FFF77AFD401B0228F6D903207C
:100920003AE02749CB682C4A1340A26AE06A0243A6
:10093000206B02431343CB600A6880235B0413439C
:100940000B60FFF763FD04001D4B1B689B0106D481
:10095000FFF75CFD001B0228F6D903201CE00020F5
:100960001AE0002018E0012B20D0154BDA68802314
:100970005B021340A16A8B421AD1F0239B03134000
:10098000E16A8B4216D1C0231B041A40236B9A42A2
:1009900012D1002000E0012003B0F0BD0120FBE7F0
:1009A0000120F9E70120F7E70020F5E70120F3E750
:1009B0000120F1E70120EFE70120EDE700700040A2
:1009C0000010024088130000FFFEFFFFFFFBFFFF47
:1009D000FFFFFFFEFFFFFFEFFFFF02FF70B5040008
:1009E0000D00002800D1B7E05F4B1A6801231340C7
:1009F0008B420AD25C490B68012293432B430B6064
:100A00000B681A40AA4200D0A8E023689B0706D5CD
:100A1000564AD368F0218B43A1680B43D360236807
:100A2000DB0764D56368022B09D0032B29D0012B87
:100A30002DD04E4A1268920506D401208BE04B4A15
:100A40001268920300D48BE04849CA6803208243AD
:100A50001343CB60FFF7DAFC06006368022B1CD05F
:100A6000032B28D0012B34D0404BDB680C221A42D8
:100A70003DD0FFF7CBFC801B3D4B9842F4D90320BF
:100A800069E03A4A12689201DED4012063E0374AF5
:100A900012685207D8D401205DE0344BDA680C2389
:100AA0001340082B23D0FFF7B1FC801B304B98423A
:100AB000F3D903204FE02D4BDA680C2313400C2BA5
:100AC00015D0FFF7A3FC801B294B9842F3D90320D4
:100AD00041E0264BDA680C231340042B07D0FFF7C4
:100AE00095FC801B224B9842F3D9032033E01E4B28
:100AF0001A6801231340AB4209D91B490B68012234
:100B000093432B430B600B681A40AA422AD12368F7
:100B10005B0706D5154AD36816490B40E1680B43BD
:100B2000D36023681B0707D51049CB68124A1340CE
:100B30002269D2001343CB60FFF76EFC0B4BDA68DF
:100B400012090F2313400D4AD35CD8400C4B186098
:100B50000020FFF705FC70BD0120FCE70120FAE74B
:100B60000120F8E70120F6E70020024000100240D3
:100B700088130000FFF8FFFFFFC7FFFF4C1D0008B0
:100B800004000020014B18687047C0460400002094
:100B900010B5FFF7F7FF044BDA68120A072313407A
:100BA000024AD35CD84010BD001002405C1D000812
:100BB00030B50F2303600C4AD4680C3B23404360DC
:100BC000D468F02323408360D468E025ED002C40F6
:100BD000C460D368DB082B400361044B1A6801230F
:100BE00013400B6030BDC0460010024000200240A0
:100BF000F0B5CE46474680B5002333E0052600E039
:100C00000026AE4035003D430234A400574EA551A6
:100C1000574C2568D4432E0026404F68FF0301D56A
:100C200015432E00524D2E606D682E0026404F68F1
:100C3000BF0301D515432E004D4D6E60AD682E00EB
:100C400026404F68FF0201D515432E00484DAE6087
:100C5000ED682C404E68B60201D52A431400444A80
:100C6000D46001330A681400DC407AD001249C402F
:100C70002240F6D04D686E1E012E03D9112D01D0F1
:100C8000122D12D185685F000326BE40B5432E00A9
:100C9000CD68BD40354385604568A5434C6826094D
:100CA000012434409C402C434460C7685E00032408
:100CB000B440E443A44627408D68B5403D43C56039
:100CC0004C68022C01D0122C10D1DC080834A4008E
:100CD000A146275807251D40AD000F24AC40A7436F
:100CE0000C69AC4025003D434C46255005686446E0
:100CF000254003244F683C40B4402C4304604C68BA
:100D0000E400AED51B4D6C6B012634436C639C082C
:100D1000A51CAD00154EAF5903261E40B5000F2689
:100D2000AE40B743A026F605B04200D168E7124EA8
:100D3000B0420ED0114EB0420DD0114EB0420CD088
:100D4000104EB0420BD0104EB04200D156E70626EE
:100D500057E7012655E7022653E7032651E7042605
:100D60004FE70CBC90469946F0BDC04600000140DC
:100D70000004014000100240000400500008005030
:100D8000000C005000100050001C0050002A01D040
:100D9000816170478162FCE7426913000B401B04CC
:100DA00091430B438361704770B5002811DB8308C2
:100DB000144DC0339B005C5903221040C000FC322C
:100DC00016008640B44389010A40824014435C51B6
:100DD00070BDC0B20F230340083B9B0806339B0045
:100DE000094A944663445D6803242040C000FF2202
:100DF00014008440A54389010A4082402A435A6076
:100E0000E6E7C04600E100E000ED00E01F231840E7
:100E10001E3B8340014A13607047C04600E100E07A
:100E200003688022D205904208D0154A904205D02E
:100E3000144A904202D0144A904203D17022934344
:100E40004A6813438022D205904208D00C4A90424F
:100E500005D00C4A904202D00B4A904203D10B4A73
:100E60001340CA681343802293430A691343036003
:100E70008B68C3620B688362012343617047C0467D
:100E8000000400400008014000140140FFFCFFFF87
:100E9000704770B5041E14D03923C35C002B0AD0F0
:100EA000392502236355210001C9FFF7B9FF01234A
:100EB0006355002070BD38330022C254FFF7E8FFAD
:100EC000EEE70120F6E70268D36801210B43D36007
:100ED0000268916807230B40062B03D01368012199
:100EE0000B4313600020704770477047704770478E
:100EF00010B5040003681A6992070FD5DA689207E3
:100F00000CD5032252421A610123037603689B69C0
:100F10009B0755D0FFF7E9FF0023237623681A6962
:100F2000520712D5DA6852070FD5052252421A61CC
:100F30000223237623689A69C0239B001A4245D076
:100F40002000FFF7D2FF0023237623681A691207D7
:100F500010D5DA6812070DD5092252421A6104230E
:100F600023762368DB699B0737D02000FFF7BDFF9E
:100F70000023237623681A69D20612D5DA68D206CE
:100F80000FD5112252421A61082323762368DA69A9
:100F9000C0239B001A4227D02000FFF7A6FF0023A2
:100FA000237623681A69D20702D5DA68D20722D4D9
:100FB00023681A69520602D5DA68520622D410BD97
:100FC000FFF792FF2000FFF791FFA5E72000FFF752
:100FD0008BFF2000FFF78AFFB5E72000FFF784FFB3
:100FE0002000FFF783FFC3E72000FFF77DFF20000D
:100FF000FFF77CFFD3E7022252421A612000FFF77D
:1010000053F9D5E7412252421A612000FFF76FFFE2
:10101000D5E70000104B1968802252000A431A607D
:10102000DA680E490A40DA601A680D490A401A6007
:101030009A6801218A439A601A680A490A401A602C
:10104000DA6809490A40DA6000221A61074B8022F7
:1010500012059A607047C046001002400C40FF889D
:10106000F6FFF6FEFFFFFBFFFFFF02FF00ED00E0D3
:10107000030008334360012252428260C36003616F
:1010800000230360704700230361704743684B608F
:101090009A688A605160996008610368013303604F
:1010A000704730B50C68631C02D00200083202E0C1
:1010B000026904E01A0053681D68A542FAD9536812
:1010C0004B6099608A605160086103680133036076
:1010D00030BD0369416882688A60416851605A681E
:1010E000824206D0002202611A68013A1A6018682A
:1010F000704782685A60F5E7084B1B681B68002B35
:1011000004D1074B012252421A607047034B1B68FF
:10111000DB68DB685A68024B1A60F6E78002002041
:1011200054030020F0B583B000900193089C0A9E00
:101130001C4B9C4662449200336B9C4662440723DE
:101140009A43170000230F2B07D8C85CF2183432DB
:101150001070002801D00133F5E743230022F25438
:10116000062C00D90624F46274640025B564301D91
:10117000FFF789FF30001830FFF785FF366107233E
:101180001C1BB4617662F5644933F554019A0099E9
:10119000380000F081FC3060099B002B00D01E60FD
:1011A00003B0F0BDFFFFFF3F70B50024062C08D848
:1011B000A3001B1998000E4BC018FFF759FF01340C
:1011C000F4E70C4D2800FFF753FF0B4C2000FFF70E
:1011D0004FFF0A48FFF74CFF0948FFF749FF09484E
:1011E000FFF746FF084B1D60084B1C6070BDC046F2
:1011F000880200202C030020400300205C03002014
:101200008803002074030020800200208402002054
:1012100010B5040000F07CFC1F4A13680133136012
:101220001E4B1B68002B0CD01D4B1B68002B0DD1D7
:101230001A4B1B68DB6AE26A934207D8174B1C60A3
:1012400004E0164B1C601368012B1FD0154A13686D
:1012500001331360E26A144B1B689A4201D9124BA6
:101260001A60211D93009B189800104BC018FFF7BF
:101270000DFF00F059FC0A4B1B68002B05D0074BF3
:101280001B68DA6AE36A9A4203D310BDFFF78CFF4A
:10129000DCE700F031FCF8E7140300207C020020BA
:1012A000700300202403002028030020880200206F
:1012B00010B504005123C35C002B05D0012B0AD0CC
:1012C000022B07D072B6FEE7006B00F06FFB200028
:1012D00000F06CFB10BD00F069FBFBE710B50D4B97
:1012E0001B68002B15D000F013FC0B4BDB68DC688F
:1012F000201DFFF7EEFE094A1368013B1360054A03
:101300001368013B136000F00FFC2000FFF7D0FFD3
:10131000E5E710BD18030020880300201403002017
:1013200010B5FFF7DBFF034B1B68012BF9D900F069
:10133000E3FBF6E78802002070B504000D00174BB0
:101340001E68174B18680430FFF7C3FE631C0DD0EE
:101350003419134B1B685C60A64210D9114B1868F6
:101360000F4B19680431FFF79CFE70BD002DEFD0C4
:101370000B4B196804310C48FFF788FEF5E70B4B5F
:101380001868074B19680431FFF78BFE084B1B6880
:10139000A342EAD9064B1C60E7E7C0469C03002045
:1013A0007C020020840200207403002080020020C0
:1013B0005403002070B586B00B9D0C9C002D08D006
:1013C000002C08D054260496049E542E05D072B6E4
:1013D000FEE772B6FEE772B6FEE7256351250226E8
:1013E000665500250395029405AD01950A9D00956B
:1013F000FFF798FE2000FFF70BFF059806B070BDC1
:10140000F0B587B00490059115001F00900000F022
:1014100061FA061E1FD0542000F05CFA041E16D09C
:101420000663002C1BD000235122A3540393029483
:101430000D9B01930C9B00933B002A000599049897
:10144000FFF770FE2000FFF7E3FE012005E030000B
:1014500000F0ACFAE5E70120404207B0F0BD012002
:101460004042FAE710B588B000240594069407AA14
:1014700006A905A8FEF738FF059B0293069B01937A
:1014800000940023079A0A490A48FFF793FF0028AF
:101490000CD072B6084B012252421A60074B02323E
:1014A0001A60074B00221A6000F008FB08B010BD5C
:1014B000701D000821130008540300207003002051
:1014C0009C030020024A1368013313607047C04632
:1014D00020030020F8B5394B1B68002B61D1384B35
:1014E0001D6801351D60002D12D1364B1B681B682D
:1014F000002B01D072B6FEE7324A1168324B1868F1
:1015000010601960314A136801331360FFF7F4FD6E
:101510002F4B1B68AB420CD900242E4B1B68DA6A98
:1015200093009B189A002C4BD358012B3ED90124D1
:101530003CE0002416E0264B012252421A60ECE700
:10154000234A1360E9E793009B189800224BC018C8
:101550003900FFF79BFDF26A1E4B1B68DB6A9A425B
:1015600000D30124174B1B681B68002BE3D0154BDD
:101570001B68DB68DE6873689D42E1D3371D380065
:10158000FFF7A7FDB36A002B03D030001830FFF738
:10159000A0FDF26A114B1B689A42D4D90F4B1A6016
:1015A000D1E70F4A13680133136000240D4B1B6809
:1015B000002B00D001242000F8BDC04620030020ED
:1015C0009C03002080020020840200205803002099
:1015D000540300207C020020880200202803002001
:1015E0001C030020A003002070B5314B1B68002BAA
:1015F00001D172B6FEE700F08BFA2D4B1A68013A62
:101600001A601B68002B4DD12A4B1B68002B01D19F
:10161000002448E00024284B1B68002B23D0264BD5
:10162000DB68DC6820001830FFF753FD251D28001B
:10163000FFF74FFDE26A214B1B689A4201D91F4B0D
:101640001A6093009B1898001D4BC0182900FFF7E3
:101650001DFD1C4B1B68DB6AE26A9A42DBD31A4B06
:1016600001221A60D7E7002C01D0FFF745FD174B88
:101670001C68002C0AD1144B1C68002C13D000F0FD
:101680003BFA01240FE0013C002C07D0FFF722FFBA
:101690000028F8D00C4B01221A60F4E70B4B002213
:1016A0001A60E8E7002400F03FFA200070BDC04651
:1016B00020030020140300205C03002028030020E6
:1016C000880200207C020020A00300201C030020D0
:1016D00010B5041E0FD0094B1B68002B01D072B649
:1016E000FEE7FFF7EFFE00212000FFF725FEFFF7E2
:1016F0007BFF002801D100F0FFF910BD200300207E
:1017000030B51C4B1B68002B03D01B4B01221A6009
:1017100030BD194B00221A60184B1B689A00D21872
:101720009100174A8A58002A05D1002B01D0013BAD
:10173000F4E772B6FEE7124D9900CA189000281817
:10174000426854684460C9188A001100083252196E
:1017500094420BD09A00D2189100094A521852684C
:10176000D168084A1160054A1360D1E760686A18B9
:101770005060EFE720030020A00300202803002092
:10178000880200207C020020842801D003307047AA
:101790000020FCE710B5FFF765FE002010BDF0B596
:1017A000CE4600B588B0040005914569002D18D0DB
:1017B0008769002F15D04668026891460822805E2E
:1017C000FFF7E2FF2269029701950090059B4946C9
:1017D0003000FFF7EFFD0790079808B004BC914672
:1017E000F0BD6768266825690823E05EFFF7CCFF37
:1017F000AAB207AB01930090059B31003800FFF7B8
:10180000FFFD0128E8D00020E7E710B5002800D14F
:101810000130FFF75DFF002010BD0000124A5307A2
:1018200008D0D11D07239943C0231B015B1A9B18C5
:101830000A0001E0C0231B010C4802600021416046
:10184000D318083B07208343094803605960196097
:10185000991A51601360074B1960074B1960074BC9
:10186000802212061A607047A8030020B40F0020DF
:10187000A4030020B00F0020AC0F0020A80F002010
:1018800010B5124A00E01A0013688342FBD3516876
:101890005418844208D041684418A34209D0036018
:1018A000904200D0106010BD4068091851601000CF
:1018B000F1E7074C2468A34206D05B68C918416071
:1018C00013681B680360EBE70460E9E7B40F0020CE
:1018D000A403002070B50400FFF7F4FD2E4B1B6835
:1018E000002B0FD02D4B1B68234246D1002C0CD06F
:1018F0000834630709D007239C430834234204D0EB
:1019000072B6FEE7FFF78AFFECE7002C37D0244BD6
:101910001B68A3423AD3234B1D6801E02B0015003E
:101920006A68A24202D22A68002AF7D11A4A1268CB
:10193000AA422DD01E6808362A681A606B681B1BE5
:10194000102B08D92819420701D072B6FEE7436070
:101950006C60FFF795FF6A6811490B689B1A0B6072
:10196000114909688B4201D20F490B600B4B1B6870
:1019700013436B6000232B6002E0002600E000268A
:10198000FFF732FE730705D072B6FEE70026F7E7D1
:101990000026F5E7300070BDA4030020A80F00204A
:1019A000AC0F0020B40F0020B00F002070B500284D
:1019B00020D00500083D6B680F4A12681A4201D119
:1019C00072B6FEE7010008390968002901D072B635
:1019D000FEE70838040093434360FFF773FD636834
:1019E000064A11688C46634413602800FFF748FFDD
:1019F000FFF7FAFD70BDC046A80F0020AC0F002015
:101A000082B000230193064B1B68013301D072B6EC
:101A1000FEE772B6019B002BFCD002B07047C046B7
:101A2000080000200000000000000000000000008E
:101A30000B4A13681868203080F30988022080F36D
:101A40001488BFF36F8F3FBCAE4608BC04BC62B6BF
:101A50001847C046C046C046C046C046C046C046FD
:101A60007C02002010B5084C00232360074A136055
:101A7000074B1868FA218900FEF746FB0138054B31
:101A800018600723236010BD10E000E018E000E0BC
:101A90000400002014E000E010B5031F802464045B
:101AA0001C60043B1960043B02491960143B1A6036
:101AB000403810BD011A00087047000010B50C4BEB
:101AC0001968FF2212040A431A601968FF221206DD
:101AD0000A431A60FFF7C6FF064B00221A60FFF7A1
:101AE000A7FFFFF70DFEFFF78BFF002010BDC046DC
:101AF00020ED00E008000020044B802252051A600F
:101B0000BFF34F8FBFF36F8F7047C04604ED00E007
:101B100072B6044A136801331360BFF34F8FBFF3EB
:101B20006F8F704708000020064B1B68002B01D107
:101B300072B6FEE7013B034A1360002B00D162B688
:101B40007047C04608000020EFF3108072B670475F
:101B500080F31088704700000000000000000000C3
:101B6000EFF309800E4B1A6820381060F0C044462D
:101B70004D4656465F46F0C008B572B6FFF7C0FD49
:101B800062B60CBC116808681030F0C8A046A946BF
:101B9000B246BB4680F309882038F0C81847C046D3
:101BA0007C02002010B5FFF7CFFF0400FFF792FC86
:101BB000002803D0034B802252051A602000FFF753
:101BC000C7FF10BD04ED00E0F0B58BB0142200217A
:101BD00005A800F095F8204BD96A80221143D962FC
:101BE000D96A0A400192019AD96A02221143D96244
:101BF000D96A0A400292029ADA6A01242243DA621E
:101C0000DA6A22400392039AD96A08221143D96200
:101C1000DB6A1A400492049B104F00220121380015
:101C2000FFF7B4F80E4E002204213000FFF7AEF8A3
:101C30000594069400250795089505A93800FEF738
:101C4000D7FF0423059306940795089505A930004E
:101C5000FEF7CEFF0BB0F0BD0010024000040050B4
:101C6000000C00500D488546002103E00C4B5B58EA
:101C7000435004310B480C4B42189A42F6D30B4A9E
:101C800002E0002313600432094B9A42F9D3FFF7B4
:101C9000C1F900F011F8FEF7FBFAFEE70050002052
:101CA000801D0008000000200C0000200C00002017
:101CB00000100020FEE7000070B500260C4D0D4C12
:101CC000641BA410A64209D1002600F021F80A4D99
:101CD0000A4C641BA410A64205D170BDB300EB589A
:101CE00098470136EEE7B300EB5898470136F2E724
:101CF000781D0008781D0008781D00087C1D00086C
:101D000003001218934200D1704719700133F9E7AC
:101D1000F8B5C046F8BC08BC9E467047F8B5C0464A
:081D2000F8BC08BC9E467047A8
:101D2800441D0008BD020008FEFF0000000000007E
:101D3800800000000000000000000000626C696E76
:101D48006B00000000000000000000000102030416
:101D5800060708090000000001020304030406083E
:101D68000C1018203000000049444C4500000000C9
:041D7800E900000876
:041D7C00C10000089A
:0C1D80000100000000002000AAAAAAAA8E
:0400000508001C656E
:00000001FF
